{
  "contractName": "Person",
  "abi": [
    {
      "inputs": [],
      "payable": false,
      "stateMutability": "nonpayable",
      "type": "constructor"
    },
    {
      "anonymous": false,
      "inputs": [
        {
          "indexed": false,
          "internalType": "uint256",
          "name": "",
          "type": "uint256"
        },
        {
          "indexed": false,
          "internalType": "uint256",
          "name": "",
          "type": "uint256"
        },
        {
          "indexed": false,
          "internalType": "string",
          "name": "",
          "type": "string"
        }
      ],
      "name": "getPersonDetails",
      "type": "event"
    },
    {
      "constant": false,
      "inputs": [
        {
          "internalType": "string",
          "name": "_name",
          "type": "string"
        }
      ],
      "name": "addPerson",
      "outputs": [],
      "payable": false,
      "stateMutability": "nonpayable",
      "type": "function"
    },
    {
      "constant": true,
      "inputs": [
        {
          "internalType": "uint256",
          "name": "_id",
          "type": "uint256"
        }
      ],
      "name": "getPerson",
      "outputs": [
        {
          "internalType": "uint256",
          "name": "",
          "type": "uint256"
        },
        {
          "internalType": "uint256",
          "name": "",
          "type": "uint256"
        },
        {
          "internalType": "string",
          "name": "",
          "type": "string"
        }
      ],
      "payable": false,
      "stateMutability": "view",
      "type": "function"
    },
    {
      "constant": true,
      "inputs": [],
      "name": "getCount",
      "outputs": [
        {
          "internalType": "uint256",
          "name": "",
          "type": "uint256"
        }
      ],
      "payable": false,
      "stateMutability": "view",
      "type": "function"
    },
    {
      "constant": false,
      "inputs": [
        {
          "internalType": "uint256",
          "name": "_id",
          "type": "uint256"
        }
      ],
      "name": "deletePerson",
      "outputs": [],
      "payable": false,
      "stateMutability": "nonpayable",
      "type": "function"
    }
  ],
  "bytecode": "0x60806040526000600355670f6b75ab2bc471c760045534801561002157600080fd5b50336000806101000a81548173ffffffffffffffffffffffffffffffffffffffff021916908373ffffffffffffffffffffffffffffffffffffffff160217905550610727806100716000396000f3fe608060405234801561001057600080fd5b506004361061004c5760003560e01c80630bf2ee8d14610051578063246982c41461010c578063a87d942c146101c1578063d08c6803146101df575b600080fd5b61010a6004803603602081101561006757600080fd5b810190808035906020019064010000000081111561008457600080fd5b82018360208201111561009657600080fd5b803590602001918460018302840111640100000000831117156100b857600080fd5b91908080601f016020809104026020016040519081016040528093929190818152602001838380828437600081840152601f19601f82011690508083019250505050505050919291929050505061020d565b005b6101386004803603602081101561012257600080fd5b810190808035906020019092919050505061040e565b6040518084815260200183815260200180602001828103825283818151815260200191508051906020019080838360005b83811015610184578082015181840152602081019050610169565b50505050905090810190601f1680156101b15780820380516001836020036101000a031916815260200191505b5094505050505060405180910390f35b6101c9610500565b6040518082815260200191505060405180910390f35b61020b600480360360208110156101f557600080fd5b810190808035906020019092919050505061050a565b005b6000809054906101000a900473ffffffffffffffffffffffffffffffffffffffff1673ffffffffffffffffffffffffffffffffffffffff163373ffffffffffffffffffffffffffffffffffffffff16146102cf576040517f08c379a00000000000000000000000000000000000000000000000000000000081526004018080602001828103825260178152602001807f4865792c20596f7520617265206e6f742041444d494e2100000000000000000081525060200191505060405180910390fd5b6040518060600160405280600454815260200160035481526020018281525060056000600354815260200190815260200160002060008201518160000155602082015181600101556040820151816002019080519060200190610333929190610605565b509050507f581b4c055f2733f2ce0c73c5f2c28af9845a5796675ed2182b5fb54b8fc98105600454600354836040518084815260200183815260200180602001828103825283818151815260200191508051906020019080838360005b838110156103ab578082015181840152602081019050610390565b50505050905090810190601f1680156103d85780820380516001836020036101000a031916815260200191505b5094505050505060405180910390a160036000815480929190600101919050555060046000815480929190600101919050555050565b60008060606005600085815260200190815260200160002060000154600560008681526020019081526020016000206001015460056000878152602001908152602001600020600201808054600181600116156101000203166002900480601f0160208091040260200160405190810160405280929190818152602001828054600181600116156101000203166002900480156104ec5780601f106104c1576101008083540402835291602001916104ec565b820191906000526020600020905b8154815290600101906020018083116104cf57829003601f168201915b505050505090509250925092509193909250565b6000600354905090565b6000809054906101000a900473ffffffffffffffffffffffffffffffffffffffff1673ffffffffffffffffffffffffffffffffffffffff163373ffffffffffffffffffffffffffffffffffffffff16146105cc576040517f08c379a00000000000000000000000000000000000000000000000000000000081526004018080602001828103825260178152602001807f4865792c20596f7520617265206e6f742041444d494e2100000000000000000081525060200191505060405180910390fd5b6005600082815260200190815260200160002060008082016000905560018201600090556002820160006106009190610685565b505050565b828054600181600116156101000203166002900490600052602060002090601f016020900481019282601f1061064657805160ff1916838001178555610674565b82800160010185558215610674579182015b82811115610673578251825591602001919060010190610658565b5b50905061068191906106cd565b5090565b50805460018160011615610100020316600290046000825580601f106106ab57506106ca565b601f0160209004906000526020600020908101906106c991906106cd565b5b50565b6106ef91905b808211156106eb5760008160009055506001016106d3565b5090565b9056fea265627a7a723158207e053bb9c23be8c0677fc9e25fd9a5bc63d9e7f23d89242b9c5d4ce28961c0fb64736f6c63430005100032",
  "source": "pragma solidity ^0.5.16;\r\n\r\ncontract Person\r\n{\r\n    address owner;\r\n    uint id;\r\n    string name;\r\n    uint count = 0;\r\n    uint index = 1111111111111111111;\r\n    mapping (uint => person) Person;\r\n    event getPersonDetails(uint , uint, string);\r\n\r\n\r\n    struct person\r\n    {\r\n        uint _index;\r\n        uint _id;\r\n        string _name;\r\n    }\r\n\r\n    constructor() public\r\n    {\r\n        owner = msg.sender;\r\n    }\r\n\r\n    modifier isowner()\r\n    {\r\n        require(msg.sender==owner, \"Hey, You are not ADMIN!\");\r\n        _;\r\n    }\r\n\r\n    function addPerson(string memory _name) public isowner\r\n    {\r\n        Person[count] = person(index, count, _name);\r\n        emit getPersonDetails(index, count, _name);\r\n        count++;\r\n        index++;\r\n    }\r\n\r\n    function getPerson(uint _id) public view returns(uint, uint, string memory)\r\n    {\r\n        return (Person[_id]._index, Person[_id]._id, Person[_id]._name);\r\n    }\r\n\r\n    function getCount() public view returns(uint)\r\n    {\r\n        return count;\r\n    }\r\n\r\n    function deletePerson(uint _id) public isowner\r\n    {\r\n        delete Person[_id];\r\n    }\r\n\r\n}",
  "sourcePath": "D:/git/Smart Contract Projects/Person Framework/contracts/Person.sol",
  "compiler": {
    "name": "solc",
    "version": "0.5.16+commit.9c3226ce.Emscripten.clang"
  },
  "schemaVersion": "3.3.1",
  "updatedAt": "2020-10-28T15:26:56.839Z",
  "networkType": "ethereum",
  "devdoc": {
    "methods": {}
  },
  "userdoc": {
    "methods": {}
  }
}